:0600000000F019EF00F012
:10000800FFFF40828180A4A00CEF00F00FEF00F00A
:10001800FFFF15EF00F0FFFFF29EA49034EC01F013
:10002800F28EFFFF40921100FFFF53EF01F0FFFF38
:100038001B6E080E6F6E2FEE45F01BC0DFFF1538E4
:10004800E846E00B1C6E15C019F016C01AF01A34F9
:100058001A3219321A341A3219321A341A32193237
:1000680019501D6E2FEE42F01CC0DFFF2FEE41F03D
:100078001DC0DFFF17C0D9FF18C0DAFFDF50196EA7
:1000880019C046FF20EE01F01750D9261850DA2281
:10009800DF50196E19C047FF20EE02F01750D9261D
:1000A8001850DA22DF50196E19C048FF20EE03F00D
:1000B8001750D9261850DA22DF50196E19C049FF97
:1000C80020EE04F01750D9261850DA22DF50196EA6
:1000D80019C04AFF20EE05F01750D9261850DA2229
:1000E800DF50196E19C04BFF20EE06F01750D926C5
:1000F8001850DA22DF50196E19C04CFF20EE07F0B5
:100108001750D9261850DA22DF50196E19C04DFF42
:10011800080EE8CF40FF1200FFFFFFFF79EC01F067
:1001280086EC01F0000E166EFA0E156EE5EC00F086
:1001380068EC01F080EC01F0FFFF20EE38F010EEE3
:1001480020F0070EDBCFE3FFE806FCE220EE30F0FC
:1001580010EE28F0070EDBCFE3FFE806FCE2000E06
:10016800166E880E156E200E176E000E186E080E8D
:100178001BEC00F0020E1F6EE80E1E6E520EFFFF03
:10018800E82EFDD71E2EFBD71F2EF9D7000E166EB0
:100198001568280E176E000E186E080E1BEC00F07E
:1001A800020E1F6EE80E1E6E520EFFFFE82EFDD7E0
:1001B8001E2EFBD71F2EF9D78190A0EF00F019EF64
:1001C80000F0FFFF800E6F6EFFFF800E6E18D8A440
:1001D800F0EF00F0F3EF00F0FFFFE8EF00F0FFFFB3
:1001E800FA0E15181610D8A4FCEF00F0FFEF00F077
:1001F800FFFF2EEF01F0FFFFC10E706EAE0E716EA5
:10020800450E726EC10E7018D8A40DEF01F010EFF4
:1002180001F0FFFF2AEF01F0FFFFAE0E7118D8A41E
:1002280018EF01F01BEF01F0FFFF2AEF01F0FFFFCD
:10023800450E7218D8A423EF01F026EF01F0FFFF56
:100248002AEF01F0FFFF590E31EF01F0FFFF4E0ECC
:1002580031EF01F0FFFF080E6F6EFFFF1200FFFF86
:10026800FFFF0E0E6F6E66CF01F067CF02F068CF0A
:1002780003F069CF04F06ACF05F06BCF06F06CCFBE
:1002880007F06DCF08F065CF09F061CF0AF062CFB3
:100298000BF0609E080E6F6E1200FFFFFFFFE20E6C
:1002A800F66E020EF76E000EF86E00EE30F010EEED
:1002B80010F00900F5CFEEFFE550E150FAE140906B
:1002C8004092000191EF00F0FFFF000EE8CF00FF21
:1002D800000EE8CF01FF1200FFFF5357495443486F
:1002E80020315357495443482030FFFFF28EF28C97
:1002F800A380A5801200FFFFFFFFF19E9390939EBD
:100308001200FFFFFFFF939493861200FFFFFFFF89
:020000040020DA
:08000000FFFFFFFFFFFFFFFF00
:020000040030CA
:04000000FF220F0EBE
:0800060080FF0FC00FE00F4066
:00000001FF
